S02B0000416C6C5F4D65676152665F41746D656761323536726672325F384D687A5F4763632F4578652F417000
S2840000000C94AD260C9415F30C9441F30C946DF30C9499F30C94C5F30C94F1F30C941DF40C9449F40C9475F40C94A1F40C94F4260C94F4260C9426EF0C94F4260C947CEF0C94F4260C94F4260C94F4260C94F4260C94F4260C94F4260C94F4260C94F4260C94D3F50C94DFF10C9482F10C94B1F10C94F4260C9464F50C943BF50C94F42690
S2840000800C94F4260C94F4260C94F4260C94F4260C9479F20C941CF20C944BF20C94D4F40C94F4260C94F4260C9495E00C94F8E20C94F4260C94F4260C94F4260C94F4260C94F4260C94F4260C94F4260C94F4260C94F4260C94F4260C94F4260C94F4260C94F4260C94F4260C94F4260C94F4260C9454E30C94F4260C94F4260C947CE328
S2840001000C94F4260C94F4260C94F4260C94F4260C94F4260C94F4260C94F4260C94A4E30C94F4260C94F4260C94F4260C94F4260C94F426000000000000000000000000000000000000000000000000000000000000000000000000000000000000000000000000000000000000000000000000000000000000000000000000000000009B
S2840001800000000000000000000000000000000000000000000000000000000000000000000000000000000000000000000000000000000000000000000000000000000000000000000000000000000000000000000000000000000000000000000000000000000000000000000000000000000000000000000000000000000000000000FA
S284000200000000000000000000000000000000000000000000000000000000000000000000000000000000000000000000000000000000000000000000000000000000000000000000000000000000000000000000000000000000000000000000000000000000000000000000000000000000000000000000000000000000000000000079
S2840002800000000000000000000000000000000000000000000000000000000000000000000000000000000000000000000000000000000000000000000000000000000000000000000000000000000000000000000000000000000000000000000000000000000000000000000000000000000000000000000000000000000000000000F9
S284000300000000000000000000000000000000000000000000000000000000000000000000000000000000000000000000000000000000000000000000000000000000000000000000000000000000000000000000000000000000000000000000000000000000000000000000000000000000000000000000000000000000000000000078
S284004400B21016001900A50E03001800E109BD0017005415010016000816080015009515010014008C1502001300F815010026009B1501001E008B1501000F00121601000E00FC1501000D00041602000C00551501000B004F1502000A00721511000900681501000800671501000700661501000600F915010005000216010004004A15B6
S284004480040003008315080002004815010001002C1508000000904712002E00B44715002D00DE4719002C00104804002A001848110029009B29CD29012A102A402A5A2A752A8F2ABA2AE729DE28342946296E29D751F450155215521552F9500351155215520B51105138514151155246514E51585115526151665115526F51AA51BC519D
S2840045001552AF51B751D751D751D751CE51CE51CE51CE51CE51CE51CE51CE51CE51CE51CE51CE51CE51CE51CE51CE51CE518251CE5115521552155215521552155215521552155215521552155215521552CE51C951D751CE517C51C151D951D751F051FE510552D751D751D7517153DE52B853B853B853E452E9528C53B853EC52EF52AD
S28400458000530553B85308530B530E53B853135316538C531B5365537A53B85368536B53E2526E536E538C538C538C538C538C538C538C538C538C538C538C538C538C538C538C538C538C534B538C53B853B853B853B853B853B853B853B853B853B853B853B853B853B8538C53825385538C5343537D5394539D5397539A53B853AB5392
S284004600B053B653BD54BF54CA54C154C354C554C7549C54CD54CF549C54D25427552A552E553155355539553C55405540559C59DA59DA59DA59A359C059B159B859EB59AA59C759C759CE59DA59E259E659465A495A4C5A4C5A4E5A585A525A555A655A505A5B5A5D5A5F5A625A4E5C515C725C545C585C725C5C5C725C675C6A5C705C8D
S284004680D95F86609560945FDC60DC60916095609A60C860B160DC60DC60C860C75FCA60E298EA98019973997399CA98D798739973997399219930994D9959997399C798F5989398609D609D899C919C919C9E9C9E9CBB9CBB9CBB9C199D199D199DB49D609D5FABB1AB85AB89AB89AB89AB89AB89AB8DAB8DABECBEEFBE90BF90BFF4BEFA
S28400470090BFFEBEE7BFE7BFE7BFE7BFE7BFE7BFE7BFE7BFE7BF90BF90BFE7BFE7BEF9BE90BF6DCABBCABBCABBCABBCABBCAAACA94CAB2CABBCAA4CABBCAAECAB6CA91CC6CCD49CE74CEB3CEDFCF28D00AD60AD60AD60AD60AD60AD60AD60AD60AD65FCF6DCF0AD60AD694CF2BCE12D81AD82CD835D837D839D83BD83ED811D989D989D976
S28400478037D940D950D959D95CD95FD962D968D900000100020003000400050006000700080009000A000B000C000D000E000F001E00180000000100020003000400050006000700080009000A000B000C000D000E000F001E00130014001500160000000100020003000400050006000700080009000A000B000C000D000E000F001E001B
S28400480013001400150016001700180019002600130014001500160000000100020003000400050006000700080009000A000B000C000D000E000F001E004A080000E10900003B0900009E0A0000D509000000000000C80A0000321000008A100000DC0D00002E0E0000F80D0000650E0000A80E0000EC0F00000000000000000000A50ED6
S2840048800000B21000000000000000000000000000000000000000000000000000000000000000000000000000000000000000000000000000000000000000000000C8100000F0100000CF080000C24A0200C64A0100C94A0100C74A0200CC4A0100CD4A0100CE4A0100CF4A0100D04A0100D14A0100D24A0200CA4A0200D44A0100D54AF1
S2840049000100EE4A0200DF4A0100E04A0100E14A0100EA4A0400D64A0100D74A0400DB4A0100DC4A0100E64A0100E74A0100E84A0200000000000000000000000000000000000000000000000000000000000000000000000000000000000000000000000000DD4A0100DE4A0100F04A0100F14A0100F24A0100F34A010000000000E24AA5
S2840049800400C44A02002C1508003615010044150400481501004A150400001601000116010008160800041602008C15020095150100FC1501001216010002160100511501005215010053150100541501004F1502005515010056150100FE150100FD150100071501000815010083150800691504005E150400621504006615010067158B
S284004A0001006815010072151100F91501006D1501006E150400F6140100091502008B1501004E1501000000000000000000F71401000000000000000000000000000000000000000000000000000000000000000000000000000000000000000000571505005C1501005D150100000000000000000000000000000000000000000000006F
S284004A80000000000000381501000000000000000000000000000000000000000000000000000000000000000000000000000000000000000000491501003E1501003715010085006C0001000007050007040205040204000308FF140000000108030303020A901A00000100000000000303141061620003001E000003F4008000000134A8
S284004B0012000303000002000000000003034C1D000010270000000001E803000004E80300001041746D656C202020202020202020202006CAAAAAAAAAAA1A0002030100000000000000000000000000000005FF000000000000000000000000000000000000000000000000000000000000000000000000000000000000000000000000EC
S284004B800000000000000000000000000000000000000000000000000000000000000000000000000000000000000000000000000000000000000000000000000000000202010002020508080000FFFF341200000000000000000202019E42FD47000000000000000000000000021C7FFA790107649AA6740101649AA6740101DB7E0D92E1
S284004C000101607E6CA10101607E3BA10107157E96740101BD7D888701010000000001070000000001010000000001030000906C01040000906C010500000000010600000000010D000000000101649A0000000100000000010E00000000010700000000010A00000000010000000000010100000000010100000000000000008378000942
S284004C8000008378000C00008378000000008378001E7BF0802398E7AA2377599E337CD97CA9759683DF89BC7895A1BA7B2876117500000000DB745E8300000000456A556DDB6AB06AD46A00004C6A5A6AC96A536A4B6D036A476C4E6CBD6C3F6CE26A0000A56D0201020303020201010101010101010102020101010201020202020202CC
S284004D00010202020202020103030202031EA94A9F01987DA0000080A7009137AC0000000069B984BE3FC84CC11AD61EC709E509E509E509E57BE640E459F6F7EEA9E1E7E08CED2CF030EDBDEB38EA0AE55CE688E79BE55AE686E799E50011248091741A823159F084B780FD04C08F718093741A07C081E08093741A03C081E18093741AC0
S284004D8014BE8091600088618093600010926000E5E7FAE18DEC01C0819390E7E030F907D9F3D0F311241FBEC0E0D0E7DEBFCDBF00E00CBF14E0A0E0B2E0E6E4F1EF01E00BBF02C007900D92AC3CB107D9F72AE1ACECB4E001C01D92A437B207E1F70E9468330E947E33FDCF0C9400007F937FB7F8949D9AA5988AEF4DD08AEF4BD09D984C
S284004E0086E448D081E0959980E08F9380EF42D08F917FBF7F9108957F937FB7F8949D9AA59886E037D09D988AE034D0889495990894881F8F9384E62DD08F917FBF7F9108959F937F9398E0E7DF879577959A959923D1F7872F7F919F9108957F937FB7F894A5989D9A8F9386E014D08F91879508F49D988F9384E60DD08F919D987FBF88
S284004E807F9108959F9398E0E9DF9A959923E1F79F91089500000000000000008A958823C9F708955F937F937FB7F894CF93DF93C0E0D0E07F935091B2007091B2007517E1F3739521965091B2005717D9F77F91CE01DF91CF917FBF7F915F91089581E080932B022FB7F8948091870690918806906190938806809387062FBF089582E08C
S284004F0080932B022FB7F8948091870690918806906190938806809387062FBF08958091CD0480932B022FB7F8948091870690918806906190938806809387062FBF08958091CD0480932B022FB7F8948091870690918806906190938806809387062FBF0895FC018785811112C06AEF74E081E290E00E9499348091FA04811104C06DE0F6
S284004F8083EC92E0C2D381E00E94C83304C067E081ED92E0BAD32FB7F8948091870690918806906190938806809387062FBF0895CF93DF93EC0180E00E94C83383EA97E00E948FE46CA18EA19FA19FD362E086EE93E09BD3DF91CF91089580E00C94D433089581E00C94D433089581111BC067E185EF92E08AD380E092E00E94BEE8019699
S28400500021F463E189ED92E080D32FB7F8948091870690918806906190938806809387062FBF08956AE18CE293E0E4CF81111BC06FE18DEE92E069D380E092E00E94BEE8019621F466E18DE093E05FD32FB7F8948091870690918806906190938806809387062FBF089583E080932B0262E284E293E0E1CF81111BC065E187E493E045D382
S28400508080E092E00E94BEE8019621F46EE08EED92E03BD32FB7F8948091870690918806906190938806809387062FBF08958FE195E00E948FE468E18DE593E0E0CF81111BC064E186E793E020D381E192E00E94BEE8019621F46EE08BE893E016D32FB7F8948091870690918806906190938806809387062FBF089584E080932B0267E157
S2840051008AE993E0E1CF80912B02813079F486E292E090930902809308028AE398E29093100280930F0285E090E01BC0823049F484E292E0909309028093080286E198E20AC0893091F482E292E0909309028093080285EF97E29093100280930F0282E090E090930702809306020895FC018081811116C081E00E94C83385E797E00E9422
S2840051808FE488E080932B022FB7F8948091870690918806906190938806809387062FBF0895CF9380912B0290E08E30910508F0E1C1FC01E65AFD4D0C9473F777D266E082EB93E0A2D284EF91E0A0E0B0E080937B0790937C07A0937D07B0937E0741E040937F0721EF37E230938107209380078093A9079093AA07A093AB07B093AC0749
S2840052004093AD078DEE97E29093AF078093AE0788EB9BE0A0E0B0E08093B6079093B707A093B807B093B9071092BA078FE897E29093BC078093BB078AE090E0A0E0B0E080936E0790936F07A0937007B09371074093720780EA97E290937407809373070E94E0338BE00FC067E089EB93E04DD281EB97E29093F9048093F80482EE94E05D
S2840052800E9466C78CE080932B0268C16AE081EC93E03BD281E090E09093DA048093D9049093D8048093D7048093D6048091DB04807F81608093DB0486ED94E09093D2048093D10488ED97E29093D4048093D3048EEC94E00E9487438DE0D5CF6FE08CEC93E013D281E090E0909300088093FF0782E08093F3071092F5071092F40721E08B
S2840053002093FE0789E195E0909307088093060886E090E090930508809304082093030886EB98E290930B0880930A0810922B0280EB97E011C16CE08CED93E0E6D180E197E2A0E0B0E08093320590933305A0933405B0933505109236058FE697E290933805809337058CE295E00E948FE48AE090E0A0E0B0E08093250590932605A09311
S2840053802705B093280581E0809329058FE797E290932B0580932A05EDC069E089EE93E0B4D1B1DE80E092E00E94A0E8019621F46DE083EF93E0A9D180E092E00E94D6E8019609F0D7C06CE081E094E057C06AE08EE094E09AD197DE80E092E00E94A0E8019621F460E189E194E08FD180E092E00E94D6E8019609F0BDC06BE08AE294E070
S2840054003DC06BE086E394E080D17DDE80E092E00E94A0E8019681F661E182E494E0CBCF6AE084E594E071D180912B02833091F48DEB97E090931A02809319028FE598E290932102809320028EE190E0909318028093170281E192E00E94A0E8019621F465E18FE594E051D181E192E00E94FEE8019609F07FC060E185E794E046D17AC013
S28400548086E0809319058DE380931A058091C00780931B058091C10780931C058091C20780931D0510921E058BED97E00E94184085E04EC0C6E0C09319058EE380931A058091C60780931B058091C70780931C058091C80780931D0510921E058BED97E00E941840C093CD0435C086E0809319058FE380931A058091CF0780931B05809106
S284005500D00780931C058091D10780931D0510921E058BED97E00E94184087E019C086E08093190580E480931A058091D50780931B058091D60780931C058091D70780931D0510921E058BED97E00E94184088E08093CD0488E697E00E948FE42FB7F8948091870690918806906190938806809387062FBFCF910895089508950895089528
S284005580CF92DF92FF920F931F93CF93DF93E42FF0E0F09035062AEF30E02F1931092E173F0734F15091340620E030E0EC01C60FD11D0AEF10E02E173F07ACF4852F90E0BC01675C7A4F6B01BE01620F731FDB015C91D6015C932F5F3F4F0196B8010E9422F7582FE8CF50933406F40EF0923506DF91CF911F910F91FF90DF90CF900895AE
S2840056001F93CF93DF93109268061092690610913506112309F446C080913306E6E3F6E01333E0F4212F30E0CAEFD0E0AF0146535640421753075CF490E0DC01A75CBA4F4C9141930196BE010E9422F7EFCF80933306109368061092350618C02AEF30E090E0DC01A75CBA4F4C9141930196B9010E9422F796E0E836F90791F7809333062B
S28400568082E38093680612531093350681E0809369064091680650E066E376E082E897E00E94F1E7DF91CF911F91089588EC80938D0710928E0789E190E09093900780938F0786E08093910710929207109293071092A2071092970710929607109299071092980710929B0710929A0710929D0710929C0780E09BE29093A1078093A0073B
S28400570082E897E00C9492E70895462F20916906222319F060E034CF0895FC01A6E3B6E0633370F4862F90E09D0126533640281739071CF421912D93F7CF409368060CC021912D9326E0A836B207D1F722E320936806425362E314DF81E0809369064091680650E066E376E082E897E00C94F1E70895A2E0B0E0EFEBFBE20C94A6F76C010A
S2840057800091110810911208E12CF12C8091150890911608E816F906A8F45801B8016C5F7F4F42E050E0CE0101960E946CF80A5F1F4F29813A812C153D0539F08FEFE81AF80AE4CF80E090E001C0C5012296EAE00C94C2F7ADE0B0E0E0EFFBE20C94A8F77C016B0123E0969587952A95E1F7FC01EF5EF74F228D30E0B70167707727062ED5
S28400580002C0369527950A94E2F78E010F5F1F4F20FF42C027E0EBE2F8E0D80101900D922A95E1F7A0E020E030E04A2F50E048175907D8F4F801E40FF51F4081542F569555754575540F452F4695469543735373450F4083E42FEF7042954F7050E04E0F511D240F351FAF5FE0CFE0E0D801A80FB91F4E2F50E04617570780F44C9150E09C
S2840058800E2E02C0569547950A94E2F741705527240F351FEF5FEDCF2FEF3FEF1B870A8746E0429FC001439F900D112404969987888786E090E09D878C876CE97DE2CE01089672D18D819E81E816F90639F084E090EA9093450880934408E1D589819A81F601918380832D96E8E00C94C4F7A6E0B0E0EDE7FCE20C94AAF77C018B0180E033
S28400590090E0FC0133E0F695E7953A95E1F7EE0DFF1D6081AC0147705527262F30E0042E02C0369527950A94E2F720FF0DC021E030E001C0220F4A95EAF720952623208318DF009731F431C0019683339105C9F62CC046E050E0BC01CE0101960E946CF889819A81F80193838283B8018D819E8131DFF801808191810596918380838B81CB
S2840059809C819583848382819381892B39F480E090EA909345088093440881D58D819E81F7019087878381E006C08FEF9FEFF7019087878380E02696E6E00C94C6F7A8E0B0E0E5EEFCE20C94A4F77C01A0901308B0901408FC01868182FD09C000E010E0812C76E0972ECC24C394D12C0CC047E050E06FEF70E0C7010E949CF86DC08824A6
S284005A0083940F5F1F4F80911708909118080817190708F05BC0909EB001919E700D11246A0D7B1D46E050E0CE0101960E946CF82D813E81F90163E0F695E7956A95E1F7EE0DFF1D408127703327842F90E0022E02C0969587950A94E2F780FFD2CFC60102C0880F991F2A95E2F79C01209524232083812C882D90E02B813C81821793077C
S284005A8008F0BDCF880F991F69817A81680F791F42E050E0CE0107960E946CF88F819885FC0153E0F695E7955A95E1F7EE0DFF1D87709927960102C0220F331F8A95E2F7C9019081982B90838394D4CF882021F000E010E0812C97CF2896ECE00C94C0F7CF93DF93EC018FEF9FEF98878F8387E0FB01DE0101900D928A95E1F7CE015FDFED
S284005B00EBE2F8E0919188818923899388E0E233F807C1F7DF91CF91089580913F0890914008A7C2089510923C088DE89DE290933E0880933D0808950895E4E2F8E0DC013D91CD012081232B2193B8E0EB32FB07B1F78091410884608093410808950E94B6EB882311F0DFD5FACF0895A2E0B0E0ECEBFDE20C94ACF78B0189839A83EFDF64
S284005B80B80189819A810E94D9EA019631F08DE20C39180721F4E3DF02C081E001C080E02296E4E00C94C8F7A2E0B0E0EAEDFDE20C94ACF78B0189839A83D1DFB80189819A810E9466EA019631F08DE20C39180721F4C5DF02C081E001C080E02296E4E00C94C8F7A2E1B0E0E8EFFDE20C94A1F780914108982F92609093410882FF0AC06E
S284005C0064E278E08AE696E06BDF809141088B7F80934108CC24C394D12C7E013DE0E30EF11C55E0A52EB12C4E0182E1880E911CBE01695F7F4F8AE696E059DE882309F462C06090710670907206F30163E0F695E7956A95E1F7EF5EF74FC30187709927960102C0220F331F8A95E2F7C901809593898923838BFC82EB82BE82AD828F81A8
S284005C80988505979A8389836CE97DE2CE0101968BDF4B855C8569857A8580E05ED0582E8D8558123AC08889998968167906A9F52B853C858E859F852817390771F59C828B82DE82CD8200E010E02B853C850217130708F0ADCF2F813885200F311F3A8329836CE97DE2CE0101965EDFAB81BC81E985FA85E00FF11F9C91808198130DC04D
S284005D000F5F1F4FE2CF809141088D7F8093410860E070E08FE001D21CC05D86798A688A8B859C859F878E87FC82EB8285E090E09E838D838F81988505979A83898362EF7DE2CE01079612DF6CE97DE2CE0101960DDF6296EFE00C94BDF7FB01460F571FE417F50719F09191890FFACF08954F925F927F928F929F92AF92BF92CF92DF924C
S284005D80EF92FF920F931F93CF93DF93CDB7DEB762970FB6F894DEBF0FBECDBF80E094E4909312088093110886E994E4909314088093130806E914E400501444C80166E070E00E940EF7892B39F080E290EA909345088093440863D326E030E0C801B9010E940EF74091150850911608642B752B709316086093150804EB14E406591444F8
S284005E00C801B9010E940EF7892B39F081E290EA909345088093440842D3C80166E070E00E940EF78091170890911808682B792B709318086093170800911108109112081092190810921A0810921B0810921C0887E0EBE2F8E0DF011D928A95E9F7D12CEE24E394F12C80911508909116082D2D30E028173907C8F546E050E0B801CE01CD
S284005E8001960E946CF82B813C812B5F3F4F8091190890911A08A0911B08B0911C08820F931FA11DB11D8093190890931A08A0931B08B0931C088D819E81FC0133E0F695E7953A95E1F7EF5EF74F87709927970102C0220F331F8A95E2F7C901928D982B928F0A5F1F4FD394BECF26E0289F6001299FD00C112434E0C30ED11CE12CF12CA7
S284005F00CE010796988B8F8786E090E09A8B898BA12CB12C00E010E096E0792E22E2822E20EA922EF80183E0F695E7958A95E1F7EF5EF74F828D90E098012770332702C0969587952A95E2F780FF41C07A9CC0017B9C900D112404969E878D876CE97DE2CE010D9621DE8B859C858017910749F48F819885A985BA858C159D05AE05BF0593
S284005F8059F01C870B87CF82D886E986FA866CE97DE2CE010D96EADDC801EBDB2C01009729F4909245088092440879D246E050E0B201CE0101960E946CF88B819C810596C80ED91EE11CF11C8FEFA81AB80A0F5F1F4F0333110509F0A5CFA5DD62960FB6F894DEBF0FBECDBFDF91CF911F910F91FF90EF90DF90CF90BF90AF909F908F90CB
S2840060007F905F904F90089520E0FC013191CF01311105C02F5F2730C1F780E0089581E0089527E0FB0111922A95E9F7FC0123E0F695E7952A95E1F7E60FF71F8770992721E030E001C0220F8A95EAF78081822B8083CB01B4CC0895ABE2B8E0FC013D9120812323219328E0A233B207C1F7CCCF0895A7E0B0E0EFE3F0E30C94ADF7BE0161
S2840060806F5F7F4FCEDFCE010196E6DFCE010196BBDF182F882339F0CE0101964EDD8091410881FF9FDD812F2796E3E00C94C9F708950895A2E0B0E0E0E6F0E30C94AEF7809173068823E9F0BE016F5F7F4F81E290E02FD4BE016E5F7F4F8DE190E029D48981823071F48A8181110BC089E590E390937C0680937B0684E796E00E94FAC314
S28400610002C00E94FCE12296E2E00C94CAF78091730608950C94B5ED0895A0E0B0E0E3E9F0E30C94A6F7B82E7B01082F10E093E0169507959A95E1F78770C1E0D0E001C0CC0F8A95EAF7AC2E8FE38B1538F484E090E89093450880934408A1D1F801E358F94F80818C2311F1C0918506D091860685E0C82E80E8D82E2097C1F0FE01E00F93
S284006180F11F82818A2171F02A853B85232B29F4D0924508C092440882D1EA85FB85B7018B2D19950990D881C02DE6CFCDB7DEB7EAE00C94C2F7E82FF0E023E0F695E7952A95E1F7E358F94F208130E0877041E050E002C0440F551F8A95E2F72423352381E0232B09F480E00895282F30E043E0369527954A95E1F7620F731F877021E094
S28400620030E001C0220F8A95EAF7FB019281922381E009F480E008951F93CF93DF93182FEB01803438F023E030E8309345082093440835D1BE01812FD8DF81112AC0BE0185E896E09AD081110BC088E0FE013296DF011D928A95E9F7BE0185E896E09DD0412F50E063E0569547956A95E1F7177021E030E001C0220F1A95EAF7C40FD51FFA
S2840062808A81822B8A83FA01E358F94F8081822B8083DF91CF911F9108951F93CF93DF93182FEB01803438F023E030E83093450820934408F4D0BE01812F97DF882369F1212F30E073E0369527957A95E1F7177041E050E0012E01C0440F0A94EAF7942F9095C20FD31F8A8189238A83E0918506F0918606309759F0DF01A20FB31F1296CD
S2840063008C91842351F40190F081E02DF3CFF901E358F94F808189238083DF91CF911F910895DC01ED91FC911197309721F0208131812D933C93CF01089561157105A1F0DC01ED91FC911197E617F70759F4208131812D933C930FC0808191818617970729F0FC013097C1F780E00895DB018D919C919183808381E00895DC01ED91FC9133
S284006380309739F0E617F70731F00190F081E02DF7CF80E0089581E008950F931F93CF93DF938C01EB01E9DF882349F080E090E890934508809344085AD080E014C019821882D801ED91FC911197309719F4CD93DC9308C080819181009711F0FC01FACFD183C08381E0DF91CF911F910F910895CF93DF93FC0182819381009781F40E9482
S284006400E3E4C22FD32F0E94BD5344E0FC0121913191CF01C227D3274150C1F7CE010E9461F881E0809332028AE392E00E948FE4DF91CF9108958CE292E00C942E54089580913202882369F08AE392E00E94BFE488EF91E3909339028093380210923202EACF08958AE392E00C94BFE4089582E090E0909347088093460880914408909197
S28400648045089093490880934808E0914208F0914308309719F086E498E01995089583E090E0909347088093460880914408909145089093490880934808E0914208F0914308309719F086E498E019950895EF920F93FC01618372834F3740F081E090E89093450880934408C2DF20C0403808F04FE7440F808181700187842BE0FA80F9D6
S284006500808334832383CB01AC016081669504962181328174E0679F200D311D11244217530720F4DC0111971C92EECF0F91EF900895A0E0B0E0EFE9F2E30C94A7F7EC018B01B42E0E94E3E469017A018D819E81AF81B885A7019601281B390B4A0B5B0BCA01B9012B813C8140E050E00E9435F72F3F31054105510518F42223F9F001C0EF
S2840065802FEF89819A81BC0138813695049649815A81E4E03E9F400D511D11246417750748F4FC013291432F231708F4422F341B3083E9CFCD82DE82EF82F886A981BA814881842F86959D0154E0859F200D311D1124C901E0E0F0E0A817B907C0F413965C911397552359F02D913C9111972017310729F412962C9112972B15C1F0309729
S28400660019F02381521708F4FD011496E5CF40FD06C0309771F0838181110BC002C0309751F011830083B2828985838304C080E003C082E001C081E0CDB7DEB7E9E00C94C3F7FECE08950895CF93DF93609147027091480280E090E0E1E0F0E09F01082E02C0220F331F0A94E2F740918706509188064623572342235323452B11F16FB7D6
S284006680F8944091870650918806209530952423352330938806209387066FBFFC01EE0FFF1FEA57FB4FC081D181209739F486E090E89093450880934408F1DEFE01199504C001968F30910549F6DF91CF9108950E9487E20E944AB3882371F02FB7F8948091870690918806806190938806809387062FBF81E0089582E00895A5DF60E06F
S28400670070E08BE20ADD8091870690918806892B09F4D0DC209187063091880681E0232B09F480E0089590CF0895FC012081211105C021E02193CF010C948FE40895FC012081213021F41192CF010C94BFE40895A5E0B0E0EEEAF3E30C94AAF77C012A833B834C835D836983EADFF7011082698163872A813B814C815D812783308741878A
S2840067805287158704872596E6E00C94C6F70895813031F018F0823029F008952F9A08952E9A08952C9A0895813031F018F0823029F008952F9808952E9808952C980895279A269A249A2F9881E0EEDF82E0ECDF80E0089589E3EBE0F5E1DF011D928A95E9F7ECE2F5E183E080838AE081831282138286E0848315821682178285E08093F8
S284006800361581E080933E1587E08093371547E850E062E57BE48CE895E10E946CF843E150E06FE37BE488EF94E10E946CF843E050E06CE37BE485EF94E10E946CF848E450E064EF7AE484E495E10E946CF88BEA9CE0EAE4F8E0DF019C011D9221503040E1F70895A4E0B0E0E8E3F4E30C94AEF7BC011A8219821C821B828827811521E0E5
S284006880920769F0811522E09207B9F0892BE9F4660F771F660F771F6A57764B07C07727660F771F660F771F6653774B44E050E0CE0101960E946CF80FC07727660F771F660F771F665C774BF1CF8AE090E69093450880934408E3DD69817A818B819C812496E2E00C94CAF775DF41CA0895A4E0B0E0EDE7F4E30C94AAF77C018B01B2DF31
S284006900EE24E11422E0F20669F026E030E6309345082093440869837A838B839C83BFDD7A816981F801718360832496E6E00C94C6F7A4E0B0E0EFE9F4E30C94AAF78C017B0190DFE114F10479F420E030E6309345082093440869837A838B839C839FDD9C818B817A81698100270115110549F0011521E0120751F4AC01C7010E946CF835
S2840069800CC0AC01C7010E9482F807C081E090E6909345088093440882DD2496E6E00C94C6F7A0E0B0E0E7EDF4E30C94A8F78C01EB0158DF6B017C01209739F484E090E690934508809344086ADD00270115110539F085E090E690934508809344085FDDA701BE01C6010E9482F8CDB7DEB7E8E00C94C4F7FC0195A5892F887090FF09C0FE
S284006A00882379F081E021A532A52236310550F408C0882331F081E021A532A52436310508F480E08170089521E030E001C0220F8A95EAF780918C06822B80938C062FB7F8948091870690918806806290938806809387062FBF0895CF93DF93E0911816F09119168E179F0718F482E894E446C08E1B9F0B6CE670E00E940EF78091131674
S284006A80681718F083E894E439C08CE6689FE00DF11D11248781869590E08230910559F014F00397D1F5809117168823B1F181508093171632C080911616882319F0815080931616DF01AC5ABF4FCD91DC9120911B1630911C16CE01821B930B63E270E00E940EF7C217D30718F484E894E406C080911416681740F085E894E490934508EC
S284006B0080934408B4DC0CC0D90183E2689FA00DB11D11248C9181111C9287818E7F8783DF91CF910895CF93DF93EC0118A68EA19FA1892B39F484E494E49093450880934408ADDCEEA1FFA1CE0188961995DF91CF910895EF92FF920F931F93CF93DF93A0911316409118165091191620E030E090E09A1709F45AC0FA01E20FF31FB90195
S284006B8064597F4FB781B0FD63C07F0194E5E90EF11CD7011D921C928230B1F010F08330F1F59091171640911516941708F03EC09F5F90931716138214821582168290859F709087128235C01091161690911416191760F500911A1640911B1650911C1690E09017B9F0EA014D5D5F4FBA0163527109DB016C9161110BC01F5F10931616C5
S284006C0041E048836896D701CD93DC93428302C09F5FE7CF40911A1649130BC007C081E894E4909345088093440839DC80E090E012C09085907F9087880F81608783118210828091181690911916820F931F03C09F5F9B018ECFCDB7DEB7E6E00C94C6F720919D06215020939D06BC0187EB96E094DB81E0D9CE0F931F93CF93DF938C0157
S284006C80C0918D06D0918E068091890690918A0680519140813F954048F4B8018DE896E07CDBCD2B59F480E0BFDE08C083E694E49093450880934408F2DBEFCFDF91CF911F910F910895BC016151710989EB96E064DB81E0A9CE20919D062F5F20939D060C94C4936F927F929F92AF92BF92CF92DF92EF92FF920F931F93CF93DF931F924A
S284006D00CDB7DEB78C017B01FB01E25AFF4F80E396E3918380833E9782E08083D80159968D919C915A973196918380839E968C919E97379680833196108231969D968C919D978095881F8827881F8083319681E08083319680839D968C919D9786FD0BC021E059968D919C915A97883F9F4F08F020E0822F01C081E0F701E35AFF4F817061
S284006D808083C80137DEF701ED5AFF4F6F0197012C5A3F4F3901882309F442C09090C5164091C616242F30E08091C91690E001972817390739F4D80199968C91499D80191124982EA92CB12CC5014E968236910538F081E594E490934508809344085FDB3091C5162091C6168091DB169091DC16F80163A574A5329F600D711D1124A5011A
S284006E004E960E9482F88AE0890DD6018C938091DB169091DC164496F301918380830EC0D80199968C919997885F80839B968D919C919C970897D9018D939C93F301C080D180D6012C912C7F2F7E2C93F801818D928D237F883F9F4F10F02860D6012C93F60180818F7D8083D8019D969C9192FD03C08F7B808322C08064F6018083D70197
S284006E8018962C911897207F216018962C93C8012983B0DD29812F70882341F08091CB168295807F822BF701808708C08091F6148295807F822BD70118968C93C8019ADDF60190818823A1F0906890839091C61680858C7F911106C0816080878091C916818709C0826080878091C616818703C09F77F6019083D80193968C919397F60112
S284006F00818396968D919C9197979383828394968D919C9195979583848398968C918683C80168DD882331F08091CA16D60117968C9308C08091B40691E0980F9093B406F6018783C7010996C6DE80E00F90DF91CF911F910F91FF90EF90DF90CF90BF90AF909F907F906F900895E091D916F091DA16BF0180819181B5CEE8EBF6E1F0937B
S284006F808916E093881692E09093841620912B1630912C1630938616209385169BE09093871610928C1610928D1691E090938E1690938F161092901623E23AE330939316209392169093911690819078926090689083909132169093B91620912E1630912F163093BB162093BA1620913016309131163093BD162093BC1690912D16909328
S284007000BE16909133169093BF1692E09093C016909129169093C11690912A169093C2169091C3169093A1161092241610922516109226161092271680931D168DE396E14ACEA4E0B0E0E7E2F8E30C94ACF7182FBE016F5F7F4F8AE190E06BDC2091A2063091A3064091A4065091A506A12FB0E00E948EF709811A812B813C81600F711F88
S284007080821F931F2496E4E00C94C8F70F931F93CF93DF93EC018C0107551109FC013C970190F081E02D6FEF818192810E94E38A882361F0FE01329780E396E39183808323971882C8010E94B49302C0CE01C8DDDF91CF911F910F9108956AE176E180E191E027DC6BE176E18EE092E000DC80911B1690911C1620E030911A16231748F460
S284007100FC0133E2239FE00DF11D112410822F5FF3CF63E176E18FE091E00BDC68E176E18DE092E0E4DB20911316E0911816F091191680E0821739F097819E7F97838F5FE459FF4FF7CF90911A169093141680931516109216161092171665EC76E188E291E0E7DB63E276E189E291E0E2DB62E276E188E191E0DDDB80912216882351F056
S2840071806EE176E18FE092E0B2DB6BED76E180E192E0ADDB309122162091231680911E1690911F16329F800D911D1124909321168093201610921D1608956EEB76E082E192E095DB6DEB76E087E191E0B2DB8091BD06E091BE06F091BF06882349F0309739F489E294E490934508809344083FC99F0146E1849F200D311D1124C90128EA39
S284007200E817F90718F4258B7696FACF08951F93CF93DF93EC01162F0097B1F08D819E81892B91F08DE896E07CD81F83ED81FE81CE010796199580918D0690918E06892B59F080E0F1DB08C08BE694E4909345088093440824D9E6CFDF91CF911F910895A1E1B0E0E6E3F9E30C949EF78C01262E29873A874B875C870E948BE0E091A606B4
S28400728029853A854B855C85EE2361F130901316C090A906D090AA06E090AB06F090AC062B013C014C185D086E087F084D825E826F827886E0911816F0911916198A66246A94762C430169827A828B829C8246015701861A970AA80AB90A8D869E86AF86B88A0BC004E71AE3A3C0A781A0FD09C0A989AF5FA98BE459FF4FB989B311F5CF0E
S28400730040C0B085BF70B23099F7AA7FA23081F783809480A580B68081149104A104B10439F3E017F10721F34D805E806F807884481459046A047B0468F44D845E846F847888840C951CA61CB71C83829482A582B68204C0138214821582168283809480A580B68049805A806B807C8084149504A604B70408F0BCCF89829A82AB82BC8247
S284007380B7CF211046C08090241690902516A0902616B090271681149104A104B104C9F12B013C014C185D086E087F08481459046A047B0488F4C80CD91CEA1CFB1CC61AD70AE80AF90AC0922416D0922516E0922616F092271608C0109224161092251610922616109227168091241690912516A0912616B091271649805A806B807C8022
S28400740084159505A605B70520F489839A83AB83BC8389819A81AB81BC81281739074A075B0710F4DA01C90104E71AE39C01AD0161E086EA96E08CD986EA96E076D96196E2E10C94BAF780919D06815080939D0680911D16833009F43CC0823039F082E594E4909345088093440819D8E091C416EE2379F181E080931D16A091F714B0E07D
S28400748011972AE030E00E9488F79B01AC0180919E0690919F06A091A006B091A106280F391F4A1F5B1FA091F614B0E00E948EF79B01AC0160932416709325168093261690932716E150E093C41661E080E090E0C7CE10921D16109224161092251610922616109227160895A4E0B0E0EAE7FAE30C94A6F72FEF3FEFA90110E0AA24AA945D
S284007500B12C80911316181708F054C0E0911816F09119168CE6189FE00DF11D1124678160FF46C07085872F8F70823009F040C0862F8A7F8230E1F583819481A581B681C090AD06D090AE06E090AF06F090B0068C199D09AE09BF0983839483A583B6830097A105B105E9F4872F807F846080876E7F663059F4C5010090F71402C0880FFA
S284007580991F0A94E2F780958093C81681E029833A834B835C8348DA29813A814B815C8107C082179307A407B50710F49C01AD011F5FA7CF8091241690912516A0912616B09127160097A105B10551F1C090AD06D090AE06E090AF06F090B0068C199D09AE09BF098093241690932516A0932616B09327160097A105B10559F482E029831B
S2840076003A834B835C83B9DC29813A814B815C8107C082179307A407B50710F49C01AD012F3FEFEF3E074E075E0751F004E71AE361E086EA96E08CD886EA96E076D803C086EA96E07CD82496EAE00C94C2F7A0E0B0E0EDE2FBE30C94A5F78C01962EC091BE06D091BF068091BD066E0196E1899FC00CD11C1124F8018589811109C07E0105
S284007680F6E1EF0EF11C58018CE0A80EB11C09C085E294E432C08A3A89F06696F6E1EF0EF11CF801CC15DD0508F04AC0908521853285F70131978081843A69F7F7013E9780819813EACF89859A852817390729F748E050E0B801CE010E9475F8892BE9F6F8018385F7013B9790818913D6CF813059F0833091F086E294E49093450880936B
S28400770044080E9437321DC0F801248535858C859D852817390709F617C0F8019489F701329780819813B9CF48E050E0BE01645F7F4FC5010E9475F8892B09F0AECF04C0958A80E090E001C0CE01CDB7DEB7EBE00C94C1F7CF93DF93EC010097B1F18AEA8D8B0E94BD5348E050E0BC01CE010E9475F8892B51F582E88D8B888581508E3F69
S28400778020F58B858330C9F48C8981508E3FE8F42C853D854E855F85688979898A899B89A0E00E9409F871F480E194E490934508809344080E94373208C0813019F086EA8D8B03C01D8A81E001C080E0DF91CF910895CF93DF93EC01009761F169AB4115510551F0FA0140815181628173814AAB5BAB6CAB7DAB04C01AAA1BAA1CAA1DAA4A
S284007800EFA5F8A9309749F484E594E490934508809344080E9437320DC0CE01C1961995CE01E8D8882331F01092DA161092D91681E0FAD8DF91CF910895A1E0B0E0E3E2FCE30C94ACF78C01FC012081318180911B1690911C162817390740F487E494E490934508809344080E944F32F8018081918120911B1630911C16821B930B63E2FD
S28400788070E00E940EF780911416681750F088E494E4909345088093440869830E944F32698180911B1690911C16F3E26F9F800D911D11242196E4E00C94C8F7FC0120814597211107C0BC018BEB96E00E94CD3181E0AAC840E050E069EA7BCFA3E0B0E0E4E7FCE30C94ACF78C01675F7F4F7A836983BE016D5F7F4F8EE090E01AD88B8169
S284007900D80199965C9199974091B406882309F442C089819A81FC01E95BFF4F21E0208359962D913C915A973196318320833296585F50839B96ED91FC919C979C01255B3F4F3897D901ED93FC938FEF8183D80196968D919C9197979383828394968D919C9195979583848398968C91868381E0840F8093B4064783D901ED91FC91808103
S284007980807888608F778083E981FA81EB5AFF4F80E396E344C089819A81FC01E95BFF4F22E0208331962DEF3FEF318320833296575F5083D8019B96ED91FC919C979C01255B3F4F3997D901ED93FC93D80159968D919C915A979283818396968D919C9197979483838394968D919C9195979683858398968C91878381E0840F8093B406CC
S284007A004087D901ED91FC91808180788C608F778083E981FA81EB5AFF4F86E498E391838083E981FA81D8019E968C919E97E15BFF4F8083E981FA81E05BFF4F8091F5148083E981FA81EF5AFF4F9D968C918095881F8827881F8083E981FA81EE5AFF4F81E08083E981FA81ED5AFF4F8083E981FA81EC5AFF4F808389819A812CD980E054
S284007A802396E4E00C94C8F7DC01ED91FC919093DA168093D9161092C6161092C7168091F6148093CB162091C51630E081A592A5B9010E940EF7462F6093C91681A592A5B9010E940EF7892B19F04F5F4093C9168FEF90E00090F71402C0880F991F0A94E2F780958E7F8093C8168091B40691E0980F9093B4068093CA160895A0E0B0E09C
S284007B00E4E8FDE30C94A5F7EC016B01942E59010091BE061091BF068091BD06780196E1899FE00CF11C1124209761F0C017D107F0F583E294E490934508809344080E944F3235C0E801CE01801B910B66E170E00E940EF7892B79F084E294E490934508809344080E944F3206C01D89143A39F01A3A29F06696CE15DF05B8F313C08885B6
S284007B809812F8CF89859A85C816D90699F748E050E0B501CE010E9475F8892B59F7143A49F703C080E090E004C0CE0102C06696CACFCDB7DEB7EBE00C94C1F74F925F927F928F929F92AF92BF92CF92DF92EF92FF920F931F93CF93DF931F92CDB7DEB72C017B010E94BD536C0157018AE6A80EB11CF501008111814114510431F0E114E5
S284007C00F10419F0C114D10451F484E194E490934508809344080E94373288EA5EC058EAF20166A177A1960140A5C801598366DF8C015981009709F44FC0F20186899789892B19F5F8017384F3E07F121EC048018CE0880E911CC4010E9496C3892BA9F4F2017286D2011D9688E0F40101900D928A95E1F78EE79EE3F201978B868BC20114
S284007C8006960E948BC380E028C0F50111830083F80183858330B1F4C8010C960E9496C3009711F459EABCCFF8012489F20123A3FC0180819181F201928F818FB701C20111D80BC0F80184859585F201928F818FB701C20103DE01C0852F0F90DF91CF911F910F91FF90EF90DF90CF90BF90AF909F908F907F905F904F900895FF920F937E
S284007D001F93CF93DF938C010551110920911316C0911816D0911916F12CF216E9F08F8180FF16C0888199818017910789F4BE01C80144DF882381F040E050E0682FC80148DDCE010E942C3581E00E94143504C0F394C459DF4FE1CF80911316F81640F085E194E490934508809344080E944F32CDB7DEB7E5E00C94C7F7EF92FF921F9318
S284007D80CF93DF931F921F92CDB7DEB77B010097A1F06115710589F0FC01178A168AF701E659FF4F11821082B70108DF182F882389F0C7010E942C350DC023E134E4309345082093440889839A830E944F3289819A81E2CF812F0F900F90DF91CF911F91FF90EF900895A1E0B0E0E9EFFEE30C94AAF78C01262FDC01ED90FC90009709F4CF
S284007E0044C0E114F10409F440C02E3C61F0822F8F7D803D41F0213D11F082E005C0F70185A587FFFACF83E0F801EB59FF4F4081518162817381D701D2964D935D936D937C93D597D1962C93833071F0D801ED91FC91808D811108C0F701178A168AB801C701ACDE883AE1F4A7014E5C5F4FD701D1966C91F80180819181ABDCC8010E9438
S284007E802C3581E00E9414350BC08FE494E4909345088093440829830E944F322981B5CF2196E6E00C94C6F7CF93DF93EC0152DC882309F454C060E0CE01C9DB892BC1F5209709F43EC08D8981113BC05091BD062091BE063091BF0640E0451781F0C9012A5E3F4FF90131976081683A31F424EAFC01258B009731F432C04F5FEECF8EEA35
S284007F008D8B2DC0209719F03D89332349F087E294E490934508809344080E9437321AC036E1FE01DC0101900D923A95E1F706C066EACE018CDB009791F024EAFC01258B09C080E294E490934508809344080E944F32BCCF60E070E080E10E948D30DF91CF910895CF93DF93EC010097D9F08091BE069091BF06C817D907A0F02091BD06E8
S284007F8036E1239F800D911D1124C817D90750F48D89843A11F08A3A71F488EA8D8BDF91CF91089581E294E490934508809344080E944F32EDCF82E294E490934508809344080E944F32E9CFCF93DF93EC01C2DB882359F064EACE013ADB009731F0C2DF60E070E080E10E948D30DF91CF9108952091BE063091BF06009751F0FC017696B6
S2840080008091BD0696E1899F200D311D112408C0F901F6CF8589843A49F08A3A39F07696E217F307B8F380E090E00895CF010895CF93DF93EC01BC018BEB96E00E94CD311F8A1E8A81E00E941435DF91CF910895CF93DF93EC01BC0189EB96E00E94CD311B8A1A8A81E00E941435DF91CF910895AAE0B0E0EEE3F0E40C94A4F710913615D7
S284008080BE01665F7F4F87E091E00E949934BE016F5F7F4F8AE190E00E949934C980DA80EB80FC80812F90E0A0E0B0E08C159D05AE05BF0578F0CC0CDD1CEE1CFF1CC982DA82EB82FC82BE016F5F7F4F8AE190E00E94D134C12ED12C87E0C80ED11CEE24D7FCE094FE2CC092A206D092A306E092A406F092A5062A8530E0A3E0B0E00E94A1
S28400810079F79B01AC01C701B6010E94F3F609811A812B813C81600F711F821F931F60939E0670939F068093A0069093A10681E08887BE01675F7F4F87E091E00E949934BE01685F7F4F84E290E00E949934898590E0A0E0B0E0880F991FAA1FBB1F8F3F9105A105B10529F020F08FEF90E0A0E0B0E00E942138E885EE2309F45AC0812C4E
S284008180912C54018B019C0101501E4F2F4F3F4F800E911EA21EB31E660F771F881F991FE15081F718867501640129E0F694E794D794C7942A95D1F7D501C4019170AA27BB2741E050E060E070E0892B8A2B8B2B19F440E050E0BA01C40ED51EE61EF71E1E821D821F82BE01695F7F4F81E191E00E949934BE016B5F7F4F88E092E00E9431
S2840082007734970186010F3F11052105310529F020F00FEF10E020E030E06D817E81C12CEE24E39420E032E04F818FE896E00E9467322A96ECE00C94C0F7882331F00E945EF88093B40610929D061092BC061092BB061092BA061092B9061092B8061092B7061092B6061092B5068AE090E0A0E0B0E08093D2169093D316A093D416B093CD
S284008280D51685EB97E39093D8168093D71681E08093D61610922A16109233161092281610922F1610922E161092291610922D16109231161092301610922C1610922B161092321610921D16109224161092251610922616109227168CE6E4E3F6E1DF011D928A95E9F783E2E0EAF6E1DF011D928A95E9F78091231690E0019620912216BA
S284008300289FA001299F500D112460E070E080911E1690911F160E949CF888EB96E19093891680938816A4CE4F925F927F928F929F92AF92BF92CF92DF92EF92FF920F931F93CF93DF931F92CDB7DEB77C01009781F02C0127E0421A510880918D0690918E068415950529F4D20112968C91893149F086E694E490934508809344080E9472
S2840083803732CBC08091890690918A068115B7E09B0709F07FC00091BB061091BC060115110551F08BEB96E00E94913140E050E063EAC8010EDAEFCF6CE6C62ED12C7CE6772EE2E4AE2EE4E4BE2EF3E48F2EF4E49F2E0091B7061091B8060115110509F444C0B80187EB96E00E949D318091181690911916F801E81BF90BCF01B6010E9432
S2840084000EF780911316681740F0B0924508A092440869830E944F326981E0911816F0911916679DE00DF11D1124808191812781269530E02130310561F02230310549F2232B61F4A8014B5F5F4FD80112966C9103C040E050E067EABCD9BBCF90924508809244080E944F32B4CF10E0809113161817D8F48091181690911916BCE61B9F37
S284008480800D911D1124FC01278120FD0E942C351F5FECCF8115924041F087E694E490934508809344080E944F3210928C0610928B0681E0C2DE0E946D380E94DD3882E393E090938A0680938906D7018C91F20182878DE896E00E949131D20118968D919C911997892B41F489E694E490934508809344080E944F32D2011896ED91FC91FC
S2840085001997C7010396199580918D0690918E06892B19F080E00E9414350F90DF91CF911F910F91FF90EF90DF90CF90BF90AF909F908F907F905F904F900895CF93DF93C0918D06D0918E06209741F484E694E490934508809344080E944F328A818A38F9F0853C09F44FC0893109F06CC08091890690918A068031914019F480E092E064
S28400858002C080E097E090938A068093890684E991E49E838D83CE0103960E94A1AA5BC08091890690918A06823323E0920719F08031964049F48FE394E090938A068093890656DD1D8202C083EA8D838DE896E00E9491318B819C81892B41F48AE694E490934508809344080E944F32EB81FC81CE010596199580918D0690918E06892B01
S28400860051F180E018C08091890690918A068F339440A1F480E095E090938A068093890682E090E09C838B8386EA96E00E949F3310929D0681E00E9414350DC063EACE010E94073908C085E694E490934508809344080E944F32DF91CF910895AAE0B0E0E4E3F3E40C94AEF7DC011396ED91FC9114972181328140E450E05A834983AE01DC
S284008680495F5F4F5C834B8341E050E05E834D836F3FBFEF7B0719F437FF15C003C02617370789F098878F837A876987BE016F5F7F4F8EE10E948D3081E02D813E81232B19F080E001C081E02A96E2E00C94CAF7009729F480919B0690919C060895FC01808191810895CF93C82FE0E0F0E0CF01EFDFFC01009739F0A381B4818C91C813E6
S284008700F6CFCF0102C080E090E0CF910895CF93DF93EC010097D9F086EA8F83EB81FC813097A9F080819FEF980F903F80F4DBDF892B69F421E08D819E81892B09F020E02A83BE018BE996E00E94CD311F82DF91CF910895DF92EF92FF920F931F93CF93DF938C01009741F480E394E490934508809344080E944F32C0E0D0E0A1E3EA2E04
S284008780A4E4FA2ECE01A4DFEC01009789F18A818111F8CF8B819C81892B31F4F0924508E09244080E944F32F80160A171A1CE0155DF882339F3EB81FC81D0806D2DF801878190850E94E38A8823E1F2F801D18AED81FE81309749F482E394E490934508809344080E94373203C0C8011995CACFCDB7DEB7E7E00C94C5F7A1E3B0E0E3E020
S284008800F4E40C94A4F78C01B62EDC015C96ED90FC905D9757966D917C915897F70147818FE896E00E949932882309F414C1D70111968C919FEF980F9E3F28F454DF6C01009719F408C1C12CD12CF801248985899689213009F022E02F8399878887D70111968C918A8BF8018789908D0E9499C3FC01009799F083E08B8B70816181528153
S284008880438134812581968187817E8B6F8B588F498F3A8F2B8F9C8F8D8F02C082E08B8BD80157968D919C9158979D8B8C8B59968D919C915A979F8F8E8FF701868188A3848195819AA389A3828193819CA38BA35B968C9190E09C012A5031093EA32DA319A6208127FD04C09C012850310906C02085237029F49C01295031093EA32DA355
S2840089002DA13EA1821B930BF801248D358D280F391F38A72FA3BAA684A18BA7868D8CA740A151A162A173A14DA75EA76FA778AB878D89ABD7018C9187FF48C018968C918370823009F042C0E0912016F0912116808190E09EA38DA38080912CAA24A394B12C2091281630E080911E1690911F16A216B3064CF5E0912016F0912116EA0D8D
S284008980FB1D408150E0209123162A9DB0012B9D700D1124680F791F880D991D0E9482F8E0912016F0912116EA0DFB1D20818DA19EA1820F911D9EA38DA3BFEFAB1ABB0A8081880E911CCDCF98A78FA3C114D10449F0D6011596ED91FC911697CE010196199539C0F8018489813021F4CE010196B1DE31C0D70111968C918F3F41F5E12CD9
S284008A00F12CC70165DE7C01009729F1D7011396ED91FC9114978081882399F312968C918111EFCF69A17AA1C70118DE882349F3D7011396ED91FC91149780818A8B1596ED91FC911697CE0101961995DACFCE0101960E940DCBC8010E949335E196ECE00C94C0F7A1E0B0E0E8E3F5E40C94A6F75C01DC015C960D911C915D97F8018181DB
S284008A802FEF280F2E3F80F429832DDE7C012981009751F0D80114966D917C911597DEDD882309F405C105C02E3F08F401C1E12CF12CF801808187FF04C09085937009F0F7C086FFF7C08C70883009F4F1C0D50157968D919C915897883FBFEF9B0708F0E7C0E114F10421F0F70122812111E0C0D5015C960D911C915D97F801208126FD7F
S284008B0002C090E0D2C02370213009F027E0F0901316E0911816F091191630E0422F50E0B801640F751F3F15E9F0A781A530B1F4DF01AF5ABF4F0D90BC91A02D8A179B0769F4DF01AC5ABF4FCD90DC90C40ED51EDB01EC90D601DC90ED1499F23F5FE459FF4FE1CF82E029830E94AA352981009741F2FC01EC5AFF4F0190F081E02DDF01BD
S284008B8058973FEA11963C9311971396BC92AE92129762E0DC01A05BBF4F6C93D50157964D915C915897DC01AF5ABF4F11965C934E9317961C9211961C9231E011963C9311963C9311961C9240E356E3129611965C934E9311973C9330813C7F32603083D8014C914C70337F342B30834C914295417040FB34F93E7D3F7B30834C9147FB5C
S284008C00442740F940FB37F930834C9130E0DC01AD5ABF4F7D0144FF0DC0D5015C964D915C915D97420F531FDA012C912183F701608337C048E04C93D80116964C911697418312964D915C9113975383428314964D915C9115975583448311964C914683D5015C964D915C915D97420F531FDA012C912783D8012C9127FF13C018962C9143
S284008C80237031F41086F70120812F5F208309C0D7012C912D5F2C93D80118962C912370208709960E946B3691E081E08927A1C190E001C091E0F801808187FF92C18085837009F48EC1D5015C960D911C915D975B968C91F801F18420912216222309F487C196EFE92EE80E80911D16813009F456C030F0843008F06BC180E494E46AC122
S284008D00D084B1E0DB1274C12F1508F471C1809123168E1508F46CC190E00196289FA001299F500D112460E070E080911E1690911F160E949CF88FEA8093C316D0921D16F0922816F5018789908D90932C1680932B16D80111968C91119780932D1612968D919C91139790932F1680932E1614968D919C9115979093311680933016169698
S284008D808C9116978093321617968C91809333168091F6148093C41610922916F12CF8018085982F9370923011F0F11021C18C7F09F01EC1809128168F1508F419C120912B1630912C16D50157968D919C9158972817390709F00CC190912D16F8018181981306C120912E1630912F16828193812817390709F0FCC02091301630913116B6
S284008E00848195812817390709F0F2C09091321686819813EDC09091331687819813E8C0209129164091F7140F2D10E0822F90E0840F911D081719070CF0DAC08F2D642F0E9402F7D92EF21668F48F2D891B8093291621E030E001C0220F4A95EAF7219520932A162091231680911E1690911F164E2D50E0D5015C966D917C915D97665FBD
S284008E807F4FF29E800D911D11240E9482F8E0912016F0912116E00FF11FE08270912916209128167F1111C09091F714822F8F19981708F4892F41E050E0082E01C0440F0A94EAF7419540932A1641E050E00D2C01C0440F0A94EAF760912A16642B60932A166F3F79F4FF24FA94F70E822F90E04091F71450E0871B9109481759070CF43F
S284008F00CA01F80E8F2D90E030E0215031098217930751F46F3F21F483E00E94BD3763C082E00E94BD3764C0A091F714B0E011979D01270F311D8217930711F06F3F09F582E00E94BD3780912A168F3F09F050C08091F71490912916980F909329162091281621502F19821708F4282F81E090E0022E01C0880F0A94EAF7819580932A16D1
S284008F8037C02AE030E00E9488F79B01AC0180919E0690919F06A091A006B091A106280F391F4A1F5B1FA091F614B0E00E948EF79B01AC016093241670932516809326169093271661E080E090E00E94303910C083E594E490934508809344080E944F3207C0992329F06FEAC50107DC80E001C081E02196EAE00C94C2F7A4E3B0E0E3E05E
S284009000F8E40C949EF7C0908906D0908A0620E1C21621E0D20609F46CC12EE4222E24E4322EAA24A394B12C87EB96E00E9491317C01009709F45DC10091181610911916C701801B910B6CE670E00E940EF780911316681748F089E494E490934508809344080E94373245C13CE6639F000D111D1124D80117968C91B0E1CB16B6E0DB065B
S28400908021F0C114E5E0DE0699F58E7F843019F5C8018C5A9F4F0E941D3C4C01DC0111966C91119712968D919C911397892B51F4EAE4F4E4F0934508E09344086CAB0E944F326CA9D70112968C91811104C0F4018281938192DBA7014B5F5F4F63EAD8018D919C910E94E93BC7010E942C359CCF8695482E512CB1E04B165104B1F054F440
S284009100452809F0EFC0D70112966C91C8010E94F33E8ACFF2E04F16510409F4BCC023E04216510409F47CC0DDC0F80180858F70813009F079CF80809180D70119968C910E9421389B01AC01A091F614F801808582958F70A81BC20102C0880F991FAA95E2F7DC010E9498F72B013C01D70112966C91611115C043825482658276820E949B
S2840091805EF89170B301A201480F591F611D711DD80113964D935D936D937C9316972EC06E3C51F0603F41F0603D31F0613D89F4F40195A597FF0DC0A7014B5F5F4FC4010E94E93BC7010E942C3581E00E94143590C0D80113964D925D926D927C9216970E945EF89170B301A201480F591F611D711DF8014383548365837683D80118969A
S2840092008C911897807F826018968C93189713962D913D914D915C91169760E0C80104C2F80180858F70813009F0FECE2091C61630E08091C91690E001972817390709F4B5C1E091F7147091C816272F30E080E090E0682F8E1708F0A9C10196A901062E02C0559547950A94E2F740FFF2CFC501062E01C0880F0A94EAF780958723809304
S284009280C8168091C716860F8093C6168CEC96E10E948FE4C9CEC8018C5A9F4F0E941D3C8C01DC0111966C91119712968D919C911397892B51F4EDE4F4E4F0934508E09344086CAB0E944F326CA9D80112968D919C91139792DAC7010E942C3581E00E941435A2CE30924508209244080E944F329BCE1BAA1AAAA3E64A2EA6E35A2EBFEACD
S2840093002B2E13E0312EAA24A394B12C66246A94712C95E4892E94E4992E89EB96E00E9491318C01C0908906D0908A06009751F1F80182899389892B09F079C1048CF58DE02D80818370813009F071C18281853009F46DC1D80157968D919C9158970E9499C3892B09F063C122E0F80126838789908D90878783538A428AC80102960E94FE
S2840093808BC3CBCFC1FE11C050E5C52E54E4D52E62E0462E72E1A72E74E4B72EE8E05E2EFEE58F2EFCE39F2E3BC00091BB061091BC060115110509F458C0B8018BEB96E00E949D3140E050E063EAC8010E94E93BECCF808D833081F57801FBE1EF0EF11CC7010E9496C3892B39F5D8011D96F701852D01900D928A95E1F7D80158968C916A
S28400940058971A968C931A9757969C928E925697C80106960E948BC38BEB96E00E9491310091BB061091BC0601151105F1F0F80186899789892B69F28091D9169091DA16892B09F4BEC2C8010E94FA34882309F4B8C2C8010E94FA34882309F4B2C2F8010081118101151105A1F78091890690918A068115B5E09B0721F08031F6E09F07D4
S28400948069F5F12C0EC02CE6F29E80011124E0911816F0911916E00FF11F8781833031F0F39480911316F81670F320C080858F70843011F08230A1F740E050E063EA808191810E94E93B8091181690911916800F911F805A9F4F0E942C35E2CF8F33944029F4F12C80911316F81648F08091890690918A068115954009F080C351C00091DD
S2840095001816109119168CE6F89E000D111D1124D80117968C91179780FF40C018969C911897292F2F702430C9F5282F2A7F2230A9F5907F79F19160905118969C938E7F823071F4C80109960E946B36F801238134814581568160E0C8010E9430391EC08630E1F48091C8168E7F8093C8168091C7168093C6168091CB1681508093CB1639
S284009580E091D916F091DA16BF01808191810E94723604C067EAC8010E94F33EF394A2CF80919D06882309F4AAC228C3F70181850E9421389B01AC01A091F614F801808582958F70A81BC50102C0880F991FAA95E2F7DC010E9498F72B013C010091D9161091DA160E945EF89170B301A201480F591F611D711DD80113964D935D936D93D4
S2840096007C931697E091D916F091DA168085807F826080878091D9169091DA16FC01238134814581568160E00E943039FDCCD8015C96ED90FC905D97BFE3CB16B4E0DB0669F0D7018C918370813041F0F80185A1811104C0C8010E949335A4C1D7014C91642F607446FF11C0509116162091131630E08091171690E0850F911D8217930717
S2840096804CF780911416581728F7242F2C70243009F3662331F0842F83708230D9F243FDD9CF45FDD7CFF801D488F1E0DF1671F032E0D312CFCF4370842F90E0009721F0029709F47AC0C6CF2C3031F0C801CAD9882309F467C1BECFD80157966D917C915897F70140858FE896E00E949932882309F4B0CFD8015B968C91893008F4AACF30
S284009700B1E0BF83F7018181928199878887D80157968D919C9158970E9499C3FC01009791F03B8A708161815281438134812581968187817E8B6F8B588F498F3A8F2B8F9C8F8D8F01C0DB8AF8018789908D9D8B8C8B818D928D9F8F8E8FD70117968C91179788A315968D919C9116979AA389A313968D919C9114979CA38BA3838D90E077
S28400978009979EA38DA3848D958D099698A78FA319A62AA684A18BA7868D8CA780A191A1A2A1B3A18DA79EA7AFA7B8AB878D89ABCE0101960E94AA434DCF423031F090924508809244080E944F32C0901816D090191680911316F6012CE6829FE00DF11D1124CF01C816D90608F034CFD60117966C91179760FFD2C018962C9118972F70EA
S284009800223009F0CBC0F601EC5AFF4F0190F081E02D2D913C91D80157964D915C915897D90159962D913C915A974217530709F0B5C0D70117963C91179727813213AEC014964D915C911597248135814217530709F0A4C012964D915C911397228133814217530709F09AC011963C9111972681321394C016963C91218132138FC06E7FA9
S284009880623031F4F6018085807F836080873FC0663009F083C0D70119969C9119978091C7169813D7CE6091F714262F30E0C501062E01C0880F0A94EAF781951A969C911A97982B1A969C931A97F6018085807F836080871A96EC91EF3F99F54091C91650E07091C716E70FCA01871B9109281739070CF4C9018E0F8093C61690E04150CC
S28400990051098417950741F4C6010E94443D60E0C6010E94F33E9ECE760F7093C7168091F6148093CB167093C616930102C0220F331F6A95E2F7B90160956E7F6093C81623C0E095E093C81680E090E02E2F30E0782F8617C8F40196A901072E02C0559547950A94E2F740FFF3CFC501072E01C0880F0A94EAF780958E238093C816809185
S284009980C716870F8093C616E091D916F091DA16BF01808191810E9472365CCE3CE6C30ED11C20CFD8015E968C915E978AAB5F968C918BABBE016E5C7F4F8BE30E948D30ACCCC8010E94FA34882361F08091DB169091DC16892B09F4BDC0D8019D968C9182FFB8C0F80181A592A58536910518F085A583FFB1C0D80198963C90332031F014
S284009A00832D0E947343892B09F448C0F80185A5208D382F347082FF0AC0223031F4818D928D883F9F4FD0F502C02130B9F18EEF820F823038F4D80193968C91815F8E3068F18CC021118AC0332309F487C0F80166A077A092D67C01009719F080E090E00CC0B0924508A09244080E94373276C0DC011B962C91213089F09701432DB30165
S284009A800E947E3D0097A1F769C0813008F475C0823009F49AC0833009F48AC026EAE12CF12C612C712CB8018BEB96E02CAB0E949D312CA921111CC0E114F10431F4D0924508C09244080E944F32F30111830083C8010E94FA34882319F0C3010E94443DB301C801F7011995282F882309F498CC40E050E0622FC8010E94E93B91CC0091F2
S284009B008D0610918E06F8018281853C41F08DE694E490934508809344080E944F32D80113968D919C9114978D7F14969C938E931397892B09F062C080E00E941D4180E196E090938A068093890660E0C8010E94073954C02AEAA3CF20EAA1CFD80158968C91813009F091CF80E00E94AA353C013EE6E32E3CE3F32E0DC0C8010E94FA34E4
S284009B80882371F083E00E94AA353C014DEBE42E4EE3F42E6114710409F467CC20E083CFF80185A582FF02C081E0EDCF80E0EBCFC8014B960E9496C30097F1F0DC018D919C91F801928F818F408EC8010E94FA34882311F083E008C0D8019D968C9182FF02C081E001C080E00E94AA353C0122E7E22E26E3F22ECECF29EA51CFE496E2E1E5
S284009C000C94BAF7AFE1B0E0E8E0FEE40C94ABF7009749F485E495E490934508809344080E94373282C0FC012081233009F07DC0218132813A83298328E03396DE01139601900D922A95E1F7FC0123852B87248535853D872C8728E03E96DE011E9601900D922A95E1F7FC01218D2D8F238D2E8F0789108DF688F6E0FF1508F056C0F801D4
S284009C808081982F9370933009F04FC0807E09F04CC08181811149C0BE01615E7F4F85E190E00E949934F801208126952695277030E08F8D90E028173907B9F58281982F9370933091F5982F907F79F58C708C3091F481E08B87F8E0FF1538F5F801838194819F878E876FEF0E94E38A8823E9F0F80129E003C0F801329727E0858196811C
S284009D00998F888F878190859F8B8E8BF21AFA8E020F111D1C8F0B8FE0919906F0919A06309719F0CE01019619956F96E5E00C94C7F780E191E090938A068093890610928E0610928D0610928C0610928B0610929C0610929B060E946D380C94C0AACF93DF93EC0169E472E085E20E940C3169E472E088E30E940C31209749F480E694E4B8
S284009D8090934508809344080E94373205C089E18A83CE010E943B36DF91CF910895009741F481E694E490934508809344080C9437322AE8FC0122830C943B36009741F482E694E490934508809344080C94373225ECFC0122830C943B36CF9330911A1680911B1690911C1620E0231751F08396FC01B3974081442311F081E029C02F5FA5
S284009E00F4CFC0E080911316C817E0F40E9487309CE6C99F900111244091181650911916FA01E20FF31F882341F0878180FF08C080858F70823021F0E0CF878180FDDDCFCF5FE0CF81E090911D16911101C080E0CF9108951F93CF93DF93EB01853239F41881BBDF91E09827912398831FC08833E9F4388140911316E0911816F091191652
S284009E8080E0841771F0278120FF07C090859F70923019F42A7F223031F08F5FE459FF4FF0CF80E001C081E0832B8883DF91CF911F910895FC01808184FD0C94DD380895A2E0B0E0E6E6FFE40C94AEF7E0918B06F0918C062F2F30E09E2F9F5F983008F090E0692F70E0A901092E02C0569547950A94E2F740FF26C090938B0681E090E00C
S284009F00062E01C0880F0A94EAF78F2780938C06660F771F6752744B42E050E0CE0101960E946CF889819A81892B41F480E094E490934508809344080E944F32E981FA81199504C0E913C9CFE0938B0680918C06882361F02FB7F8948091870690918806806290938806809387062FBF2296E2E00C94CAF780913F15853091F028F48823B2
S284009F8049F0823069F004C0843141F0863141F080E00895809138158B3010F488E0089582E00895833014F083E01BC096E0980F923010F48BEF15C098E0980F923010F489EF0FC09AE0980F923010F487EF09C09EE0980F943010F484EF03C0823F0CF48FEE80933D150895C5DF282F220F220F280F30E0A90160E8869F400D511D1124E1
S28400A000CA01089580913F158530E9F028F4882349F0823079F004C0843189F0863189F080E0089580913815882349F08B3058F489E1089580913815811105C002C082E3089588E2089580E10895CF93DF93EC01D9DFE82F9E01A0ECB3E00E9479F79B01AC01AE2FB0E00E948EF728EE33E040E050E00E9435F7CA01B901DF91CF91089502
S28400A080CF93DF93B1DFEC01BDDF282F2C9FC0012D9F900D1124BC0180E090E028EE33E040E050E00E9435F72F5F20933615DF91CF910895CF93DF938BE08093381580E098EFAFEFB7E08093391590933A15A0933B15B0933C156DE375E183E090E00E94993480913D155EDF6DE375E183E090E00E94D13410923F1577DF909341158093FB
S28400A100401538DF94E0899F800D11248093421531DF8093431586E390E0A0E0B0E080930B1590930C15A0930D15B0930E1510920F151092101581E0809311151092131510921215109214150E945EF880931515E6E1F5E18FEF80838183828383838483858386838783CFEFDFEFD0931F15C0931E150E945EF88093201585E08093211570
S28400A18084E08093221583E08093231580932415D0932615C093251580E2809327151092281510922915D0932B15C0932A15109234151092351564DFDF91CF910895A4E0B0E0E5EEF0E50C94AEF7DC014C9150E0CA01805491098534910508F0DFC088599D4DFC010C9473F711968C918093101508C011968D919C911297909313158093C2
S28400A200121580E015C111968C91853308F00FC180931415F6CF11968C9180931515F1CF11968C9111978093161512968C9112978093171513968C9113978093181514968C9114978093191515968C91159780931A1516968C91169780931B1517968C91179780931C1518968C9180931D15C9CF11968D919C91129790931F1580931E15B1
S28400A280C0CF11968C9180932015BBCF11968C91863008F0CCC080932215B3CF11968C9190912115981708F4C2C080932415A9CF11968D919C9112979093261580932515A0CF11968C91809328159BCF11968D919C91129790932B1580932A1592CF11968D919C911297B1DE69837A838B839C83BE016F5F7F4F03C0BD016F5F7F4F82E060
S28400A30090E079C011967C91119712966C91129713965C91139714964C91149715963C91159716962C91169717969C91179718968C9170932C1560932D1550932E1540932F153093301520933115909332158093331557CF11968C9180930F1552CF11968C91883008F063C0809323154ACF11968C918093271545CF11968C918093211599
S28400A38040CF11968C91803108F051C08093371538CF11968C918093351533CF4830510508F043C043555D4DFA010C9473F78BEF3FC011962C918091391590913A15A0913B15B0913C15022E04C0B695A795979587950A94D2F780FF2AC02093381523C011968C9190E2980F903408F5DBDD6DE375E183E090E00E94D13403CF11968C91F1
S28400A4008430A8F480933E15FCCE11968C91853041F018F4833058F404C0843111F0863131F480933F152CDEECCE84EF01C088EE2496E2E00C94CAF7A4E0B0E0E2E2F2E50C94A0F7609022156091211570E0E0912415F0E0262D30E0CB018E1B9F0B281739070CF4C901AA2797FDA095BA2F0097A105B10521F481E090E0A0E0B0E0712CC8
S28400A480C12CD12C76018C019D01015011092109310942E0442E512C872C912CA12CB12C081519052A053B05B0F0AF01470D511D41505109520102C0AA0CBB1C4A95E2F74501AA2497FCA094BA2CC80CD91CEA1CFB1C7394E1CF262D30E040E050E0281B390B4A0B5B0B61507109A2E0B0E002C0AA0FBB1F6A95E2F711970E9498F79B019E
S28400A500AC012C0D3D1D4E1D5F1DA4E1B0E00E948EF79B01AC0169833A834B835C8364DD29813A814B815C81280F391F411D511D29833A834B835C8365DDA82FB0E029813A814B815C810E948EF728EE33E040E050E00E9435F7CA01B9012496E0E10C94BCF750DDE82F2091271530E0A0ECB3E00E9479F79B01AC01AE2FB0E00E948EF74D
S28400A58028EE33E040E050E00E9435F7CA01B9010895A4E0B0E0EFECF2E50C94A8F78C01FC01408150E0FA01E054F109E534F10508F0B2C0EB54FD4D0C9473F780911015F801818380E0D5C08091121590911315C3C080911415F4CF80911515F1CF7091161560911715509118154091191530911A1520911B1590911C1580911D155BC03D
S28400A60080911E1590911F15A7C080912015D8CF80912215D5CF80912415D2CF809125159091261599C080912815CACF80912A1590912B1591C0BE016F5F7F4F82E090E00E949934C980DA80EB80FC80C114D104E104F10491F0D6DC282F30E0A0ECB3E00E9479F728EE33E040E050E00E9435F7C701B6010E9435F702C024EF31E0F80140
S28400A680328321839FCFBC016F5F7F4F82E090E00E94993497CF70912C1560912D1550912E1540912F1530913015209131159091321580913315F801718362835383448335832683978380877DCF80910F1578CF8091231575CF8091271572CFFC01118271CF80910B1590910C15A0910D15B0910E152BC08091211563CF80913715F8019A
S28400A700818336C0809135155BCF2BDFF801618372838383948356CF4830510548F5FA01E650FD4D0C9473F78091381549CF80913D1546CF80913E1543CF8091391590913A15A0913B15B0913C15F80181839283A383B48337CF48DCF8019283818332CF09DCF4E08F9F800D11242ACF03DC28CF84EF2496E8E00C94C4F78CE295E108956C
S28400A78048E050E0BC018CE295E10E9475F821E0892B09F020E0822F0895CF92DF92EF92FF92CF936B017C01E5DBC82F2BDC2C2F30E0A82FB0E00E9479F79B01AC01C701B6010E94F3F628EE33E040E050E00E9435F7CA01B901CF91FF90EF90DF90CF9008952FB7F8948091050790910607946090930607809305073FB7F8948091C0062E
S28400A80081110FC04FB7F8948091870690918806816090938806809387064FBF81E08093C0063FBF2FBF0895BC0182EC96E00E94CD318091C106811101C0D3CF0895FC011282F2CF21E0FC012283EECF22E0FC012283EACF23E0FC012283E6CF25E0FC0122831186108622E02783DECFA1E0B0E0ECE3F4E50C94ADF71092C3061092C2067D
S28400A8805AD11FB7F894CE0101960E94C1D9811104C082E08093C10602C01092C10610920607109205071FBF2196E3E00C94C9F7A2E0B0E0EEE5F4E50C94ACF71FB7F8941092C006CE0102960E94C1D9882339F08091C1068230C9F41092C10616C081E090E00A8002C0880F991F0A94E2F780959095209105073091060728233923309378
S28400A90006072093050780E001C081E01FBF8111BAC081E08093C1068A818A3029F50091C2061091C306209155023091560241E050E00115110539F4CE0101960E94C1D981114BC033C0CA01F801028002C0880F991F0A94E2F782239323892B09F065C0F80100811181E5CF90E08C30910520F7FC01EE5FFC4D0C9473F7B0D214C0B7D2AC
S28400A98012C02AD410C0C5D30EC05ED30CC00E9446D709C00E94CAD606C03DD104C00E9415D701C0A5D0811127C0C6CF2FB7F8948091C00681110FC03FB7F8948091870690918806816090938806809387063FBF81E08093C0062FBF56C08091CB06811152C08091C2069091C306892B11F0F9DE4AC01092C10647C0813009F044C04FB731
S28400AA00F89421E030E00A8002C0220F331F0A94E2F78091050790910607822B932B90930607809305074FBF2EC0B80182EC96E00E949D31F801428150E04930510508F07BCFFA01E25FFC4DC8010C9473F797D393E002C040D394E09A83A5CF87D295E0FBCF0E9432D796E0F7CF0E94A7D692E0F3CFB5D098E0F0CF0E94F5D699E0ECCFA5
S28400AA8006D09BE0E9CF2296E4E00C94C8F7CF93DF93EC0118868B819C819C01215031092F333105C8F4805C9E4F9C838B838A81873031F0883081F4CE010E947CB303C0CE010E9462B3882339F0813061F4D0930407C093030707C01886EE81FF81CE010896199580E08093C406DF91CF910895CF93DF93C0910307D09104078A8187303F
S28400AB0031F0883041F4CE010E947CB307C0CE010E9462B303C081E0888702C0811106C0EE81FF81CE010896199580E08093C406DF91CF910895AEE0B0E0E1EAF5E50C94ACF70E9496B382E088871E861D861A86198681E08F83CE0101960E94CCB68B859C850E9461F873D00E945AD789D2F0D26ED30E94F0D668D00E942FD78EE4898389
S28400AB80809122158A83CE0101960E9491B78FE48983809124158A83CE0101960E9491B789E58983809123158A83CE0101960E9491B780E589830FEF1FEF1B830A83CE0101960E9491B783E589831B830A83CE0101960E9491B72E96E4E00C94C8F71F93CF93DF93EC010E94CCB6182F882339F0813051F4D0930407C093030705C0EC85EE
S28400AC00FD85CE01089619951093C506812FDF91CF911F9108951F93CF93DF93C0910307D0910407CE010E94CCB6182F811105C0EC85FD85CE01089619951093C506812FDF91CF911F9108951092C5060895A2E0B0E0EDE2F6E50C94AEF767EF79E180E092E00E947734BE016F5F7F4F80E091E00E94993429813A818091F7199091F819A3
S28400AC809093FC198093FB199093FE198093FD199093001A8093FF19280F391F3093021A2093011A1092FA191092F91963E07AE183E292E00E947734BE016F5F7F4F8EE291E00E94993429813A818091031A9091041A9093081A8093071A90930A1A8093091A90930C1A80930B1A280F391F30930E1A20930D1A1092061A1092051A22963B
S28400AD00E2E00C94CAF79CE0899FF0011124E950F64E86819781019608959CE0899FF0011124E950F64E4FB7F894A681B7818C9190E001968A0F9B1F978386831C9226813781808591852817390751F484819581918780878081918195838483978386834FBF08959CE0899FF0011124E950F64EA681B78182819381A817B90721F081E06B
S28400AD809C91911101C080E0089581E0EBDF8823F9F08091050790910607816090930607809305072FB7F8948091C00681110FC03FB7F8948091870690918806816090938806809387063FBF81E08093C0062FBF80E0C8DF8823F9F08091050790910607826090930607809305072FB7F8948091C00681110FC03FB7F894809187069091B4
S28400AE008806816090938806809387063FBF81E08093C0062FBF0895A6E3B0E0E2E1F7E50C94ADF7182F6FDFFC01208130E0DC01A20FB31F12968C912F5F3F4F2E0F3F1FD9016C91813220F4811103C081E001C080E26295669566956370689FB00111248FEF869FA001879F500D1124CA0160E670E00E940EF7D9016C93BF01CE01019608
S28400AE800E94A9D7882319F18A81982F977029F4807619F48B818C70B1F020914702309148022E7F3093480220934702CE010196BED420914702309148022160309348022093470204C080913815898FE6CF812F24DF80E0E696E3E00C94C9F781E042DF882311F081E098DF50DF80E0089580E039DF882311F080E08FDF47DF80E00895AA
S28400AF00A9E0B0E0E6E8F7E50C94ABF78C018091C80665E0813029F4C4D0F82E811121C01EC080E0BED0F82E81111BC0F8018381898388E03496DE01129601900D928A95E1F7CE0101960E9491B7F82E8091C806823039F48091C706B3D065E0A2D01092C8068F2D2996E5E00C94C7F7A9E0B0E0ECEBF7E50C94ACF78C01DC0113968C913A
S28400AF80833511F148F4853028F4823088F4811124C01AC092EB09C08438B1F028F4893579F08F36D1F410C090E1980F9330A8F4813F41F4F80194812091C606921339C091E00CC08935E1F39091131A9093C706963119F492E09093C80690E02091C806211111C0911113C0898388E0F8013496DE01129601900D928A95E1F7CE0101963C
S28400B0000E9491B702C0C8017BDF811108C0D8011C96ED91FC911D97199580E004C010930407009303078093C9062996E4E00C94C8F79093C6069091131A9093C706963109F0BECF91E0C7CFA1E0B0E0EAE2F8E50C94ACF70091030710910407C80150DF811108C0D8011C96ED91FC911D978983199589818093C9062196E4E00C94C8F796
S28400B0801092C9061092C8061092C6060895882331F0813011F083E0089586E1089589E108956093DD16F3DF0C9496B8882331F0813011F088E0089586E1089589E108958850823130F4E82FF0E0EC55FB4F8081089588E008951F93CF93DF93EC011091131A8B81E3DF181729F064E08B81D9DF811105C0EC81FD81199580E004C0D09308
S28400B1000407C09303078093CA06DF91CF911F910895A1E0B0E0EFE8F8E50C94ACF7009103071091040764E0D80113968C91B9DF811108C0D8011496ED91FC9115978983199589818093CA062196E4E00C94C8F71092CA060895CF93DF93EC0163E080E0A0DF811109C082E08093CB06CE0103960E94EBD80E94F4B8DF91CF910895CF9306
S28400B180DF93EC0189AD83DF8093111AD0930407C0930307809123158093DE160E945EF89093E0168093DF168091131A893151F482E08093CB06CE0103960E94EBD80E94F4B805C081E08093CB06CE01C4DF8093CC06DF91CF910895A2E0B0E0E2EFF8E50C94ACF700910307109104078091CB06813021F4C801AFDF811123C00E942DB335
S28400B2000E9404B31A8219820E94C0B6D801DC968C93DC97DA96ED91FC91DB97C801CC9619958091231590E02091DE16821B91099A838983BE016F5F7F4F8DE30E948D3080E08093CC062296E4E00C94C8F71092CC061092CB060895A9E0B0E0E2E3F9E50C94AEF783E08983CE01019692D98A81833021F40E94C0B6813029F08091DE16F7
S28400B28081508093DE160E94AAE263E080E009DF81110DC0809103079091040722E02093CB0603960E94EBD80E94F4B80EC081E08093CC068093CB068091050790910607886090930607809305072996E2E00C94CAF72FB7F8948091870690918806846090938806809387062FBF0895BC0180E999E10E94CD3180917F1981110CC02FB738
S28400B300F8948091870690918806846090938806809387062FBF0895CF93DF93DC0112964C9150E0FA013197E031F10508F053C0E95EFC4D0C9473F7DC011C96ED91FC911D970E963DC0DC011B96ED91FC911C970D9636C0DC011796ED91FC91189709962FC0DC015196ED91FC915297439628C0DC015396ED91FC9154974596199543C0F3
S28400B380DC011996ED91FC911A970B9619C0DC011E96ED91FC911F97409612C0FC01C08DC470D0E0018CF28DE02D4B961995CD2B51F511C0DC011496ED91FC9115970696199509C08091F0198E7F03C08091F0198D7F8093F01910927F192091F0198091901990919119892B11F4222361F02FB7F89480918706909188068460909388060E
S28400B400809387062FBFDF91CF910895CF93DF9380917F19882319F0833009F06AC08091F019882389F080FF09C08FE080937F190E948F6861EF0E94E7665BC080E180937F190E9467DD55C080915702882309F450C0C0919019D0919119209709F449C080E999E10E9491318A8180937F19D0938219C09381198A8190E0FC013197EE3001
S28400B480F10518F5E95DFC4D0C9473F70E94D6641AC00E94B06417C05CD415C0C7D713C0AAD411C00E94C7DB0EC00E940EDC0BC00E94A56608C0EED006C052D304C00E9473DE01C01ED4811114C010927F198091901990919119892B61F02FB7F8948091870690918806846090938806809387062FBFDF91CF91089527E0FC012283F6CECC
S28400B50028E0FC012283F2CE2BE0FC012283EECE22E0FC012283EACECF93DF93EC018B81882331F183E08A8380937F1910929119109290191092F01968E572E085E20E940C31BE0180E999E10E94CD318FD983E899E10E94BFE42FB7F8948091870690918806846090938806809387062FBF04C084E08A83CE01BADEDF91CF9108952AE0F2
S28400B580FC012283B3CE25E0FC012283AFCE21E0FC012283ABCE26E0FC012283A7CE2CE0FC012283A3CE2DE0FC0122839FCE20917F19233011F00C9462A6089520917F19233011F00C9407AF089520917F19233011F00C9484A2089520917F19233011F00C9457B2089520917F19233011F00C944FAA089520917F19233011F00C942FB245
S28400B60008958091F01981608093F01980917F19811101C05ECE08958091F01982608093F01980917F19811101C053CE089520917F19211104C021E120937F191DC308958091F019811105C00E94FA6991E0982701C091E0892F08951F93CF93DF93EB011881EEDF91E0982791239883DF91CF911F910895CF93DF93C0918119D091821995
S28400B680FC0180810E94D6DD8CA3CE0145DEDF91CF9108951F93CF93DF93C0918119D09182198091251590912615998B888B13E01A8B63D8DE01539628E0FC0101900D922A95E1F71B8F8B818C8F8C818D8F8D818E8F8E818F8F8F8188A3888589A389858AA38A858BA38D85811105C01CA2CE0113DE80E077C08BE080939F19809120157A
